:100000000C9434000C943E000C943E000C943E0082
:100010000C943E000C943E000C943E000C943E0068
:100020000C943E000C943E000C943E000C943E0058
:100030000C943E000C943E000C943E000C943E0048
:100040000C943E000C943E000C943E000C943E0038
:100050000C943E000C943E000C943E000C943E0028
:100060000C943E000C943E0011241FBECFEFD8E04C
:10007000DEBFCDBF0E94BE000C94F0000C940000C7
:10008000EAE7F0E084E88083ACE7B0E08C9180643C
:100090008C93808180688083089590917C00907F0C
:1000A00090937C0090917C00982B90937C0028E0AA
:1000B00030E080E090E040917A00406440937A0024
:1000C00040917A0046FDFCCF409178005091790034
:1000D000840F951F2150304071F723E09695879546
:1000E0002A95E1F7089590917C00907F90937C0091
:1000F00090917C00982B90937C0080E190E020E030
:1001000030E040917A00406440937A0040917A0058
:1001100046FDFCCF4091780050917900240F351FA7
:10012000019779F73695279536952795C901089552
:1001300090917C00907F90937C0090917C00982B14
:1001400090937C0080E490E020E030E040917A00E1
:10015000406440937A0040917A0046FDFCCF409184
:10016000780050917900240F351F019779F754E0FA
:10017000369527955A95E1F7C901089527E025BDE1
:1001800083E28093800080EF9FE0909389008093CA
:10019000880010928B0010928A0081E18093810088
:1001A00080E880936100109261002093B1008FEF8E
:1001B00085B984E284B92D9A0E94400080E00E94B3
:1001C0004D0087BD81E00E944D0090E09093890032
:1001D0008093880082E00E944D008093B300EECFB0
:0401E000F894FFCFC1
:00000001FF
